{
  "contractName": "Checker",
  "abi": [
    {
      "inputs": [],
      "stateMutability": "nonpayable",
      "type": "constructor"
    },
    {
      "anonymous": false,
      "inputs": [
        {
          "indexed": true,
          "internalType": "address",
          "name": "owner",
          "type": "address"
        },
        {
          "indexed": true,
          "internalType": "address",
          "name": "approved",
          "type": "address"
        },
        {
          "indexed": true,
          "internalType": "uint256",
          "name": "tokenId",
          "type": "uint256"
        }
      ],
      "name": "Approval",
      "type": "event"
    },
    {
      "anonymous": false,
      "inputs": [
        {
          "indexed": true,
          "internalType": "address",
          "name": "owner",
          "type": "address"
        },
        {
          "indexed": true,
          "internalType": "address",
          "name": "operator",
          "type": "address"
        },
        {
          "indexed": false,
          "internalType": "bool",
          "name": "approved",
          "type": "bool"
        }
      ],
      "name": "ApprovalForAll",
      "type": "event"
    },
    {
      "anonymous": false,
      "inputs": [
        {
          "indexed": false,
          "internalType": "address",
          "name": "account",
          "type": "address"
        }
      ],
      "name": "Paused",
      "type": "event"
    },
    {
      "anonymous": false,
      "inputs": [
        {
          "indexed": true,
          "internalType": "bytes32",
          "name": "role",
          "type": "bytes32"
        },
        {
          "indexed": true,
          "internalType": "bytes32",
          "name": "previousAdminRole",
          "type": "bytes32"
        },
        {
          "indexed": true,
          "internalType": "bytes32",
          "name": "newAdminRole",
          "type": "bytes32"
        }
      ],
      "name": "RoleAdminChanged",
      "type": "event"
    },
    {
      "anonymous": false,
      "inputs": [
        {
          "indexed": true,
          "internalType": "bytes32",
          "name": "role",
          "type": "bytes32"
        },
        {
          "indexed": true,
          "internalType": "address",
          "name": "account",
          "type": "address"
        },
        {
          "indexed": true,
          "internalType": "address",
          "name": "sender",
          "type": "address"
        }
      ],
      "name": "RoleGranted",
      "type": "event"
    },
    {
      "anonymous": false,
      "inputs": [
        {
          "indexed": true,
          "internalType": "bytes32",
          "name": "role",
          "type": "bytes32"
        },
        {
          "indexed": true,
          "internalType": "address",
          "name": "account",
          "type": "address"
        },
        {
          "indexed": true,
          "internalType": "address",
          "name": "sender",
          "type": "address"
        }
      ],
      "name": "RoleRevoked",
      "type": "event"
    },
    {
      "anonymous": false,
      "inputs": [
        {
          "indexed": true,
          "internalType": "address",
          "name": "from",
          "type": "address"
        },
        {
          "indexed": true,
          "internalType": "address",
          "name": "to",
          "type": "address"
        },
        {
          "indexed": true,
          "internalType": "uint256",
          "name": "tokenId",
          "type": "uint256"
        }
      ],
      "name": "Transfer",
      "type": "event"
    },
    {
      "anonymous": false,
      "inputs": [
        {
          "indexed": false,
          "internalType": "address",
          "name": "account",
          "type": "address"
        }
      ],
      "name": "Unpaused",
      "type": "event"
    },
    {
      "inputs": [],
      "name": "DEFAULT_ADMIN_ROLE",
      "outputs": [
        {
          "internalType": "bytes32",
          "name": "",
          "type": "bytes32"
        }
      ],
      "stateMutability": "view",
      "type": "function",
      "constant": true
    },
    {
      "inputs": [],
      "name": "MINTER_ROLE",
      "outputs": [
        {
          "internalType": "bytes32",
          "name": "",
          "type": "bytes32"
        }
      ],
      "stateMutability": "view",
      "type": "function",
      "constant": true
    },
    {
      "inputs": [],
      "name": "PAUSER_ROLE",
      "outputs": [
        {
          "internalType": "bytes32",
          "name": "",
          "type": "bytes32"
        }
      ],
      "stateMutability": "view",
      "type": "function",
      "constant": true
    },
    {
      "inputs": [
        {
          "internalType": "address",
          "name": "to",
          "type": "address"
        },
        {
          "internalType": "uint256",
          "name": "tokenId",
          "type": "uint256"
        }
      ],
      "name": "approve",
      "outputs": [],
      "stateMutability": "nonpayable",
      "type": "function"
    },
    {
      "inputs": [
        {
          "internalType": "address",
          "name": "owner",
          "type": "address"
        }
      ],
      "name": "balanceOf",
      "outputs": [
        {
          "internalType": "uint256",
          "name": "",
          "type": "uint256"
        }
      ],
      "stateMutability": "view",
      "type": "function",
      "constant": true
    },
    {
      "inputs": [
        {
          "internalType": "uint256",
          "name": "tokenId",
          "type": "uint256"
        }
      ],
      "name": "burn",
      "outputs": [],
      "stateMutability": "nonpayable",
      "type": "function"
    },
    {
      "inputs": [
        {
          "internalType": "uint256",
          "name": "tokenId",
          "type": "uint256"
        }
      ],
      "name": "getApproved",
      "outputs": [
        {
          "internalType": "address",
          "name": "",
          "type": "address"
        }
      ],
      "stateMutability": "view",
      "type": "function",
      "constant": true
    },
    {
      "inputs": [
        {
          "internalType": "bytes32",
          "name": "role",
          "type": "bytes32"
        }
      ],
      "name": "getRoleAdmin",
      "outputs": [
        {
          "internalType": "bytes32",
          "name": "",
          "type": "bytes32"
        }
      ],
      "stateMutability": "view",
      "type": "function",
      "constant": true
    },
    {
      "inputs": [
        {
          "internalType": "bytes32",
          "name": "role",
          "type": "bytes32"
        },
        {
          "internalType": "address",
          "name": "account",
          "type": "address"
        }
      ],
      "name": "grantRole",
      "outputs": [],
      "stateMutability": "nonpayable",
      "type": "function"
    },
    {
      "inputs": [
        {
          "internalType": "bytes32",
          "name": "role",
          "type": "bytes32"
        },
        {
          "internalType": "address",
          "name": "account",
          "type": "address"
        }
      ],
      "name": "hasRole",
      "outputs": [
        {
          "internalType": "bool",
          "name": "",
          "type": "bool"
        }
      ],
      "stateMutability": "view",
      "type": "function",
      "constant": true
    },
    {
      "inputs": [
        {
          "internalType": "address",
          "name": "owner",
          "type": "address"
        },
        {
          "internalType": "address",
          "name": "operator",
          "type": "address"
        }
      ],
      "name": "isApprovedForAll",
      "outputs": [
        {
          "internalType": "bool",
          "name": "",
          "type": "bool"
        }
      ],
      "stateMutability": "view",
      "type": "function",
      "constant": true
    },
    {
      "inputs": [],
      "name": "name",
      "outputs": [
        {
          "internalType": "string",
          "name": "",
          "type": "string"
        }
      ],
      "stateMutability": "view",
      "type": "function",
      "constant": true
    },
    {
      "inputs": [
        {
          "internalType": "uint256",
          "name": "tokenId",
          "type": "uint256"
        }
      ],
      "name": "ownerOf",
      "outputs": [
        {
          "internalType": "address",
          "name": "",
          "type": "address"
        }
      ],
      "stateMutability": "view",
      "type": "function",
      "constant": true
    },
    {
      "inputs": [],
      "name": "paused",
      "outputs": [
        {
          "internalType": "bool",
          "name": "",
          "type": "bool"
        }
      ],
      "stateMutability": "view",
      "type": "function",
      "constant": true
    },
    {
      "inputs": [
        {
          "internalType": "bytes32",
          "name": "role",
          "type": "bytes32"
        },
        {
          "internalType": "address",
          "name": "account",
          "type": "address"
        }
      ],
      "name": "renounceRole",
      "outputs": [],
      "stateMutability": "nonpayable",
      "type": "function"
    },
    {
      "inputs": [
        {
          "internalType": "bytes32",
          "name": "role",
          "type": "bytes32"
        },
        {
          "internalType": "address",
          "name": "account",
          "type": "address"
        }
      ],
      "name": "revokeRole",
      "outputs": [],
      "stateMutability": "nonpayable",
      "type": "function"
    },
    {
      "inputs": [
        {
          "internalType": "address",
          "name": "from",
          "type": "address"
        },
        {
          "internalType": "address",
          "name": "to",
          "type": "address"
        },
        {
          "internalType": "uint256",
          "name": "tokenId",
          "type": "uint256"
        }
      ],
      "name": "safeTransferFrom",
      "outputs": [],
      "stateMutability": "nonpayable",
      "type": "function"
    },
    {
      "inputs": [
        {
          "internalType": "address",
          "name": "from",
          "type": "address"
        },
        {
          "internalType": "address",
          "name": "to",
          "type": "address"
        },
        {
          "internalType": "uint256",
          "name": "tokenId",
          "type": "uint256"
        },
        {
          "internalType": "bytes",
          "name": "_data",
          "type": "bytes"
        }
      ],
      "name": "safeTransferFrom",
      "outputs": [],
      "stateMutability": "nonpayable",
      "type": "function"
    },
    {
      "inputs": [
        {
          "internalType": "address",
          "name": "operator",
          "type": "address"
        },
        {
          "internalType": "bool",
          "name": "approved",
          "type": "bool"
        }
      ],
      "name": "setApprovalForAll",
      "outputs": [],
      "stateMutability": "nonpayable",
      "type": "function"
    },
    {
      "inputs": [],
      "name": "symbol",
      "outputs": [
        {
          "internalType": "string",
          "name": "",
          "type": "string"
        }
      ],
      "stateMutability": "view",
      "type": "function",
      "constant": true
    },
    {
      "inputs": [
        {
          "internalType": "uint256",
          "name": "index",
          "type": "uint256"
        }
      ],
      "name": "tokenByIndex",
      "outputs": [
        {
          "internalType": "uint256",
          "name": "",
          "type": "uint256"
        }
      ],
      "stateMutability": "view",
      "type": "function",
      "constant": true
    },
    {
      "inputs": [
        {
          "internalType": "address",
          "name": "owner",
          "type": "address"
        },
        {
          "internalType": "uint256",
          "name": "index",
          "type": "uint256"
        }
      ],
      "name": "tokenOfOwnerByIndex",
      "outputs": [
        {
          "internalType": "uint256",
          "name": "",
          "type": "uint256"
        }
      ],
      "stateMutability": "view",
      "type": "function",
      "constant": true
    },
    {
      "inputs": [],
      "name": "totalSupply",
      "outputs": [
        {
          "internalType": "uint256",
          "name": "",
          "type": "uint256"
        }
      ],
      "stateMutability": "view",
      "type": "function",
      "constant": true
    },
    {
      "inputs": [
        {
          "internalType": "address",
          "name": "from",
          "type": "address"
        },
        {
          "internalType": "address",
          "name": "to",
          "type": "address"
        },
        {
          "internalType": "uint256",
          "name": "tokenId",
          "type": "uint256"
        }
      ],
      "name": "transferFrom",
      "outputs": [],
      "stateMutability": "nonpayable",
      "type": "function"
    },
    {
      "inputs": [],
      "name": "initialize",
      "outputs": [],
      "stateMutability": "nonpayable",
      "type": "function"
    },
    {
      "inputs": [],
      "name": "pause",
      "outputs": [],
      "stateMutability": "nonpayable",
      "type": "function"
    },
    {
      "inputs": [],
      "name": "unpause",
      "outputs": [],
      "stateMutability": "nonpayable",
      "type": "function"
    },
    {
      "inputs": [
        {
          "internalType": "address",
          "name": "to",
          "type": "address"
        },
        {
          "internalType": "string",
          "name": "uri",
          "type": "string"
        }
      ],
      "name": "safeMint",
      "outputs": [],
      "stateMutability": "nonpayable",
      "type": "function"
    },
    {
      "inputs": [
        {
          "internalType": "uint256",
          "name": "tokenId",
          "type": "uint256"
        }
      ],
      "name": "tokenURI",
      "outputs": [
        {
          "internalType": "string",
          "name": "",
          "type": "string"
        }
      ],
      "stateMutability": "view",
      "type": "function",
      "constant": true
    },
    {
      "inputs": [
        {
          "internalType": "bytes4",
          "name": "interfaceId",
          "type": "bytes4"
        }
      ],
      "name": "supportsInterface",
      "outputs": [
        {
          "internalType": "bool",
          "name": "",
          "type": "bool"
        }
      ],
      "stateMutability": "view",
      "type": "function",
      "constant": true
    }
  ],
  "bytecode": "0x60806040523480156200001157600080fd5b50600060019054906101000a900460ff168062000039575060008054906101000a900460ff16155b6200007b576040517f08c379a000000000000000000000000000000000000000000000000000000000815260040162000072906200017c565b60405180910390fd5b60008060019054906101000a900460ff161590508015620000cc576001600060016101000a81548160ff02191690831515021790555060016000806101000a81548160ff0219169083151502179055505b8015620000ee5760008060016101000a81548160ff0219169083151502179055505b506200019e565b600082825260208201905092915050565b7f496e697469616c697a61626c653a20636f6e747261637420697320616c72656160008201527f647920696e697469616c697a6564000000000000000000000000000000000000602082015250565b600062000164602e83620000f5565b9150620001718262000106565b604082019050919050565b60006020820190508181036000830152620001978162000155565b9050919050565b6154e280620001ae6000396000f3fe608060405234801561001057600080fd5b50600436106101da5760003560e01c80636352211e11610104578063a22cb465116100a2578063d539139311610071578063d53913931461053f578063d547741f1461055d578063e63ab1e914610579578063e985e9c514610597576101da565b8063a22cb465146104bb578063b88d4fde146104d7578063c87b56dd146104f3578063d204c45e14610523576101da565b80638456cb59116100de5780638456cb591461044557806391d148541461044f57806395d89b411461047f578063a217fddf1461049d576101da565b80636352211e146103db57806370a082311461040b5780638129fc1c1461043b576101da565b80632f2ff15d1161017c57806342842e0e1161014b57806342842e0e1461035557806342966c68146103715780634f6ccce71461038d5780635c975abb146103bd576101da565b80632f2ff15d146102e35780632f745c59146102ff57806336568abe1461032f5780633f4ba83a1461034b576101da565b8063095ea7b3116101b8578063095ea7b31461025d57806318160ddd1461027957806323b872dd14610297578063248a9ca3146102b3576101da565b806301ffc9a7146101df57806306fdde031461020f578063081812fc1461022d575b600080fd5b6101f960048036038101906101f49190613bd4565b6105c7565b6040516102069190613c1c565b60405180910390f35b6102176105d9565b6040516102249190613cd0565b60405180910390f35b61024760048036038101906102429190613d28565b61066b565b6040516102549190613d96565b60405180910390f35b61027760048036038101906102729190613ddd565b6106f0565b005b610281610808565b60405161028e9190613e2c565b60405180910390f35b6102b160048036038101906102ac9190613e47565b610815565b005b6102cd60048036038101906102c89190613ed0565b610875565b6040516102da9190613f0c565b60405180910390f35b6102fd60048036038101906102f89190613f27565b610896565b005b61031960048036038101906103149190613ddd565b6108bf565b6040516103269190613e2c565b60405180910390f35b61034960048036038101906103449190613f27565b610964565b005b6103536109e7565b005b61036f600480360381019061036a9190613e47565b610a24565b005b61038b60048036038101906103869190613d28565b610a44565b005b6103a760048036038101906103a29190613d28565b610aa0565b6040516103b49190613e2c565b60405180910390f35b6103c5610b11565b6040516103d29190613c1c565b60405180910390f35b6103f560048036038101906103f09190613d28565b610b28565b6040516104029190613d96565b60405180910390f35b61042560048036038101906104209190613f67565b610bda565b6040516104329190613e2c565b60405180910390f35b610443610c92565b005b61044d610e68565b005b61046960048036038101906104649190613f27565b610ea5565b6040516104769190613c1c565b60405180910390f35b610487610f11565b6040516104949190613cd0565b60405180910390f35b6104a5610fa3565b6040516104b29190613f0c565b60405180910390f35b6104d560048036038101906104d09190613fc0565b610faa565b005b6104f160048036038101906104ec9190614135565b61112b565b005b61050d60048036038101906105089190613d28565b61118d565b60405161051a9190613cd0565b60405180910390f35b61053d60048036038101906105389190614259565b61119f565b005b610547611205565b6040516105549190613f0c565b60405180910390f35b61057760048036038101906105729190613f27565b611229565b005b610581611252565b60405161058e9190613f0c565b60405180910390f35b6105b160048036038101906105ac91906142b5565b611276565b6040516105be9190613c1c565b60405180910390f35b60006105d28261130a565b9050919050565b6060606580546105e890614324565b80601f016020809104026020016040519081016040528092919081815260200182805461061490614324565b80156106615780601f1061063657610100808354040283529160200191610661565b820191906000526020600020905b81548152906001019060200180831161064457829003601f168201915b5050505050905090565b600061067682611384565b6106b5576040517f08c379a00000000000000000000000000000000000000000000000000000000081526004016106ac906143c8565b60405180910390fd5b6069600083815260200190815260200160002060009054906101000a900473ffffffffffffffffffffffffffffffffffffffff169050919050565b60006106fb82610b28565b90508073ffffffffffffffffffffffffffffffffffffffff168373ffffffffffffffffffffffffffffffffffffffff16141561076c576040517f08c379a00000000000000000000000000000000000000000000000000000000081526004016107639061445a565b60405180910390fd5b8073ffffffffffffffffffffffffffffffffffffffff1661078b6113f0565b73ffffffffffffffffffffffffffffffffffffffff1614806107ba57506107b9816107b46113f0565b611276565b5b6107f9576040517f08c379a00000000000000000000000000000000000000000000000000000000081526004016107f0906144ec565b60405180910390fd5b61080383836113f8565b505050565b6000609980549050905090565b6108266108206113f0565b826114b1565b610865576040517f08c379a000000000000000000000000000000000000000000000000000000000815260040161085c9061457e565b60405180910390fd5b61087083838361158f565b505050565b600061012d6000838152602001908152602001600020600101549050919050565b61089f82610875565b6108b0816108ab6113f0565b6117eb565b6108ba8383611888565b505050565b60006108ca83610bda565b821061090b576040517f08c379a000000000000000000000000000000000000000000000000000000000815260040161090290614610565b60405180910390fd5b609760008473ffffffffffffffffffffffffffffffffffffffff1673ffffffffffffffffffffffffffffffffffffffff168152602001908152602001600020600083815260200190815260200160002054905092915050565b61096c6113f0565b73ffffffffffffffffffffffffffffffffffffffff168173ffffffffffffffffffffffffffffffffffffffff16146109d9576040517f08c379a00000000000000000000000000000000000000000000000000000000081526004016109d0906146a2565b60405180910390fd5b6109e3828261196a565b5050565b7f65d7a28e3265b37a6474929f336521b332c1681b933f6cb9f3376673440d862a610a1981610a146113f0565b6117eb565b610a21611a4d565b50565b610a3f8383836040518060200160405280600081525061112b565b505050565b610a55610a4f6113f0565b826114b1565b610a94576040517f08c379a0000000000000000000000000000000000000000000000000000000008152600401610a8b90614734565b60405180910390fd5b610a9d81611aef565b50565b6000610aaa610808565b8210610aeb576040517f08c379a0000000000000000000000000000000000000000000000000000000008152600401610ae2906147c6565b60405180910390fd5b60998281548110610aff57610afe6147e6565b5b90600052602060002001549050919050565b600060fb60009054906101000a900460ff16905090565b6000806067600084815260200190815260200160002060009054906101000a900473ffffffffffffffffffffffffffffffffffffffff169050600073ffffffffffffffffffffffffffffffffffffffff168173ffffffffffffffffffffffffffffffffffffffff161415610bd1576040517f08c379a0000000000000000000000000000000000000000000000000000000008152600401610bc890614887565b60405180910390fd5b80915050919050565b60008073ffffffffffffffffffffffffffffffffffffffff168273ffffffffffffffffffffffffffffffffffffffff161415610c4b576040517f08c379a0000000000000000000000000000000000000000000000000000000008152600401610c4290614919565b60405180910390fd5b606860008373ffffffffffffffffffffffffffffffffffffffff1673ffffffffffffffffffffffffffffffffffffffff168152602001908152602001600020549050919050565b600060019054906101000a900460ff1680610cb8575060008054906101000a900460ff16155b610cf7576040517f08c379a0000000000000000000000000000000000000000000000000000000008152600401610cee906149ab565b60405180910390fd5b60008060019054906101000a900460ff161590508015610d47576001600060016101000a81548160ff02191690831515021790555060016000806101000a81548160ff0219169083151502179055505b610dbb6040518060400160405280600781526020017f436865636b6572000000000000000000000000000000000000000000000000008152506040518060400160405280600381526020017f43484b0000000000000000000000000000000000000000000000000000000000815250611afb565b610dc3611bf0565b610dcb611ce1565b610dd3611dd2565b610ddb611ebb565b610de3611fac565b610df06000801b3361209d565b610e1a7f65d7a28e3265b37a6474929f336521b332c1681b933f6cb9f3376673440d862a3361209d565b610e447f9f2df0fed2c77648de5860a4cc508cd0818c85b8b8a1ab4ceeef8d981c8956a63361209d565b8015610e655760008060016101000a81548160ff0219169083151502179055505b50565b7f65d7a28e3265b37a6474929f336521b332c1681b933f6cb9f3376673440d862a610e9a81610e956113f0565b6117eb565b610ea26120ab565b50565b600061012d600084815260200190815260200160002060000160008373ffffffffffffffffffffffffffffffffffffffff1673ffffffffffffffffffffffffffffffffffffffff16815260200190815260200160002060009054906101000a900460ff16905092915050565b606060668054610f2090614324565b80601f0160208091040260200160405190810160405280929190818152602001828054610f4c90614324565b8015610f995780601f10610f6e57610100808354040283529160200191610f99565b820191906000526020600020905b815481529060010190602001808311610f7c57829003601f168201915b5050505050905090565b6000801b81565b610fb26113f0565b73ffffffffffffffffffffffffffffffffffffffff168273ffffffffffffffffffffffffffffffffffffffff161415611020576040517f08c379a000000000000000000000000000000000000000000000000000000000815260040161101790614a17565b60405180910390fd5b80606a600061102d6113f0565b73ffffffffffffffffffffffffffffffffffffffff1673ffffffffffffffffffffffffffffffffffffffff16815260200190815260200160002060008473ffffffffffffffffffffffffffffffffffffffff1673ffffffffffffffffffffffffffffffffffffffff16815260200190815260200160002060006101000a81548160ff0219169083151502179055508173ffffffffffffffffffffffffffffffffffffffff166110da6113f0565b73ffffffffffffffffffffffffffffffffffffffff167f17307eab39ab6107e8899845ad3d59bd9653f200f220920489ca2b5937696c318360405161111f9190613c1c565b60405180910390a35050565b61113c6111366113f0565b836114b1565b61117b576040517f08c379a00000000000000000000000000000000000000000000000000000000081526004016111729061457e565b60405180910390fd5b6111878484848461214e565b50505050565b6060611198826121aa565b9050919050565b7f9f2df0fed2c77648de5860a4cc508cd0818c85b8b8a1ab4ceeef8d981c8956a66111d1816111cc6113f0565b6117eb565b60006111de6101916122fc565b90506111eb61019161230a565b6111f58482612320565b6111ff818461233e565b50505050565b7f9f2df0fed2c77648de5860a4cc508cd0818c85b8b8a1ab4ceeef8d981c8956a681565b61123282610875565b6112438161123e6113f0565b6117eb565b61124d838361196a565b505050565b7f65d7a28e3265b37a6474929f336521b332c1681b933f6cb9f3376673440d862a81565b6000606a60008473ffffffffffffffffffffffffffffffffffffffff1673ffffffffffffffffffffffffffffffffffffffff16815260200190815260200160002060008373ffffffffffffffffffffffffffffffffffffffff1673ffffffffffffffffffffffffffffffffffffffff16815260200190815260200160002060009054906101000a900460ff16905092915050565b60007f7965db0b000000000000000000000000000000000000000000000000000000007bffffffffffffffffffffffffffffffffffffffffffffffffffffffff1916827bffffffffffffffffffffffffffffffffffffffffffffffffffffffff1916148061137d575061137c826123b2565b5b9050919050565b60008073ffffffffffffffffffffffffffffffffffffffff166067600084815260200190815260200160002060009054906101000a900473ffffffffffffffffffffffffffffffffffffffff1673ffffffffffffffffffffffffffffffffffffffff1614159050919050565b600033905090565b816069600083815260200190815260200160002060006101000a81548173ffffffffffffffffffffffffffffffffffffffff021916908373ffffffffffffffffffffffffffffffffffffffff160217905550808273ffffffffffffffffffffffffffffffffffffffff1661146b83610b28565b73ffffffffffffffffffffffffffffffffffffffff167f8c5be1e5ebec7d5bd14f71427d1e84f3dd0314c0f7b2291e5b200ac8c7c3b92560405160405180910390a45050565b60006114bc82611384565b6114fb576040517f08c379a00000000000000000000000000000000000000000000000000000000081526004016114f290614aa9565b60405180910390fd5b600061150683610b28565b90508073ffffffffffffffffffffffffffffffffffffffff168473ffffffffffffffffffffffffffffffffffffffff16148061157557508373ffffffffffffffffffffffffffffffffffffffff1661155d8461066b565b73ffffffffffffffffffffffffffffffffffffffff16145b8061158657506115858185611276565b5b91505092915050565b8273ffffffffffffffffffffffffffffffffffffffff166115af82610b28565b73ffffffffffffffffffffffffffffffffffffffff1614611605576040517f08c379a00000000000000000000000000000000000000000000000000000000081526004016115fc90614b3b565b60405180910390fd5b600073ffffffffffffffffffffffffffffffffffffffff168273ffffffffffffffffffffffffffffffffffffffff161415611675576040517f08c379a000000000000000000000000000000000000000000000000000000000815260040161166c90614bcd565b60405180910390fd5b61168083838361242c565b61168b6000826113f8565b6001606860008573ffffffffffffffffffffffffffffffffffffffff1673ffffffffffffffffffffffffffffffffffffffff16815260200190815260200160002060008282546116db9190614c1c565b925050819055506001606860008473ffffffffffffffffffffffffffffffffffffffff1673ffffffffffffffffffffffffffffffffffffffff16815260200190815260200160002060008282546117329190614c50565b92505081905550816067600083815260200190815260200160002060006101000a81548173ffffffffffffffffffffffffffffffffffffffff021916908373ffffffffffffffffffffffffffffffffffffffff160217905550808273ffffffffffffffffffffffffffffffffffffffff168473ffffffffffffffffffffffffffffffffffffffff167fddf252ad1be2c89b69c2b068fc378daa952ba7f163c4a11628f55a4df523b3ef60405160405180910390a4505050565b6117f58282610ea5565b6118845761181a8173ffffffffffffffffffffffffffffffffffffffff166014612484565b6118288360001c6020612484565b604051602001611839929190614d7a565b6040516020818303038152906040526040517f08c379a000000000000000000000000000000000000000000000000000000000815260040161187b9190613cd0565b60405180910390fd5b5050565b6118928282610ea5565b61196657600161012d600084815260200190815260200160002060000160008373ffffffffffffffffffffffffffffffffffffffff1673ffffffffffffffffffffffffffffffffffffffff16815260200190815260200160002060006101000a81548160ff02191690831515021790555061190b6113f0565b73ffffffffffffffffffffffffffffffffffffffff168173ffffffffffffffffffffffffffffffffffffffff16837f2f8788117e7eff1d82e926ec794901d17c78024a50270940304540a733656f0d60405160405180910390a45b5050565b6119748282610ea5565b15611a4957600061012d600084815260200190815260200160002060000160008373ffffffffffffffffffffffffffffffffffffffff1673ffffffffffffffffffffffffffffffffffffffff16815260200190815260200160002060006101000a81548160ff0219169083151502179055506119ee6113f0565b73ffffffffffffffffffffffffffffffffffffffff168173ffffffffffffffffffffffffffffffffffffffff16837ff6391f5c32d9c69d2a47ea670b442974b53935d1edc7fd64eb21e047a839171b60405160405180910390a45b5050565b611a55610b11565b611a94576040517f08c379a0000000000000000000000000000000000000000000000000000000008152600401611a8b90614e00565b60405180910390fd5b600060fb60006101000a81548160ff0219169083151502179055507f5db9ee0a495bf2e6ff9c91a7834c1ba4fdd244a5e8aa4e537bd38aeae4b073aa611ad86113f0565b604051611ae59190613d96565b60405180910390a1565b611af8816126c0565b50565b600060019054906101000a900460ff1680611b21575060008054906101000a900460ff16155b611b60576040517f08c379a0000000000000000000000000000000000000000000000000000000008152600401611b57906149ab565b60405180910390fd5b60008060019054906101000a900460ff161590508015611bb0576001600060016101000a81548160ff02191690831515021790555060016000806101000a81548160ff0219169083151502179055505b611bb8612713565b611bc06127ec565b611bca83836128c5565b8015611beb5760008060016101000a81548160ff0219169083151502179055505b505050565b600060019054906101000a900460ff1680611c16575060008054906101000a900460ff16155b611c55576040517f08c379a0000000000000000000000000000000000000000000000000000000008152600401611c4c906149ab565b60405180910390fd5b60008060019054906101000a900460ff161590508015611ca5576001600060016101000a81548160ff02191690831515021790555060016000806101000a81548160ff0219169083151502179055505b611cad612713565b611cb56127ec565b611cbd6129ce565b8015611cde5760008060016101000a81548160ff0219169083151502179055505b50565b600060019054906101000a900460ff1680611d07575060008054906101000a900460ff16155b611d46576040517f08c379a0000000000000000000000000000000000000000000000000000000008152600401611d3d906149ab565b60405180910390fd5b60008060019054906101000a900460ff161590508015611d96576001600060016101000a81548160ff02191690831515021790555060016000806101000a81548160ff0219169083151502179055505b611d9e612713565b611da66127ec565b611dae612aa7565b8015611dcf5760008060016101000a81548160ff0219169083151502179055505b50565b600060019054906101000a900460ff1680611df8575060008054906101000a900460ff16155b611e37576040517f08c379a0000000000000000000000000000000000000000000000000000000008152600401611e2e906149ab565b60405180910390fd5b60008060019054906101000a900460ff161590508015611e87576001600060016101000a81548160ff02191690831515021790555060016000806101000a81548160ff0219169083151502179055505b611e8f612713565b611e97612b80565b8015611eb85760008060016101000a81548160ff0219169083151502179055505b50565b600060019054906101000a900460ff1680611ee1575060008054906101000a900460ff16155b611f20576040517f08c379a0000000000000000000000000000000000000000000000000000000008152600401611f17906149ab565b60405180910390fd5b60008060019054906101000a900460ff161590508015611f70576001600060016101000a81548160ff02191690831515021790555060016000806101000a81548160ff0219169083151502179055505b611f78612713565b611f806127ec565b611f88612c74565b8015611fa95760008060016101000a81548160ff0219169083151502179055505b50565b600060019054906101000a900460ff1680611fd2575060008054906101000a900460ff16155b612011576040517f08c379a0000000000000000000000000000000000000000000000000000000008152600401612008906149ab565b60405180910390fd5b60008060019054906101000a900460ff161590508015612061576001600060016101000a81548160ff02191690831515021790555060016000806101000a81548160ff0219169083151502179055505b612069612713565b6120716127ec565b612079612d4d565b801561209a5760008060016101000a81548160ff0219169083151502179055505b50565b6120a78282611888565b5050565b6120b3610b11565b156120f3576040517f08c379a00000000000000000000000000000000000000000000000000000000081526004016120ea90614e6c565b60405180910390fd5b600160fb60006101000a81548160ff0219169083151502179055507f62e78cea01bee320cd4e420270b5ea74000d11b0c9f74754ebdbfc544b05a2586121376113f0565b6040516121449190613d96565b60405180910390a1565b61215984848461158f565b61216584848484612e26565b6121a4576040517f08c379a000000000000000000000000000000000000000000000000000000000815260040161219b90614efe565b60405180910390fd5b50505050565b60606121b582611384565b6121f4576040517f08c379a00000000000000000000000000000000000000000000000000000000081526004016121eb90614f90565b60405180910390fd5b600060c96000848152602001908152602001600020805461221490614324565b80601f016020809104026020016040519081016040528092919081815260200182805461224090614324565b801561228d5780601f106122625761010080835404028352916020019161228d565b820191906000526020600020905b81548152906001019060200180831161227057829003601f168201915b50505050509050600061229e612fae565b90506000815114156122b45781925050506122f7565b6000825111156122e95780826040516020016122d1929190614fb0565b604051602081830303815290604052925050506122f7565b6122f284612fc5565b925050505b919050565b600081600001549050919050565b6001816000016000828254019250508190555050565b61233a82826040518060200160405280600081525061306c565b5050565b61234782611384565b612386576040517f08c379a000000000000000000000000000000000000000000000000000000000815260040161237d90615046565b60405180910390fd5b8060c9600084815260200190815260200160002090805190602001906123ad929190613a85565b505050565b60007f780e9d63000000000000000000000000000000000000000000000000000000007bffffffffffffffffffffffffffffffffffffffffffffffffffffffff1916827bffffffffffffffffffffffffffffffffffffffffffffffffffffffff191614806124255750612424826130c7565b5b9050919050565b612434610b11565b15612474576040517f08c379a000000000000000000000000000000000000000000000000000000000815260040161246b90614e6c565b60405180910390fd5b61247f8383836131a9565b505050565b6060600060028360026124979190615066565b6124a19190614c50565b67ffffffffffffffff8111156124ba576124b961400a565b5b6040519080825280601f01601f1916602001820160405280156124ec5781602001600182028036833780820191505090505b5090507f300000000000000000000000000000000000000000000000000000000000000081600081518110612524576125236147e6565b5b60200101907effffffffffffffffffffffffffffffffffffffffffffffffffffffffffffff1916908160001a9053507f780000000000000000000000000000000000000000000000000000000000000081600181518110612588576125876147e6565b5b60200101907effffffffffffffffffffffffffffffffffffffffffffffffffffffffffffff1916908160001a905350600060018460026125c89190615066565b6125d29190614c50565b90505b6001811115612672577f3031323334353637383961626364656600000000000000000000000000000000600f861660108110612614576126136147e6565b5b1a60f81b82828151811061262b5761262a6147e6565b5b60200101907effffffffffffffffffffffffffffffffffffffffffffffffffffffffffffff1916908160001a905350600485901c94508061266b906150c0565b90506125d5565b50600084146126b6576040517f08c379a00000000000000000000000000000000000000000000000000000000081526004016126ad90615136565b60405180910390fd5b8091505092915050565b6126c9816132bd565b600060c9600083815260200190815260200160002080546126e990614324565b9050146127105760c96000828152602001908152602001600020600061270f9190613b0b565b5b50565b600060019054906101000a900460ff1680612739575060008054906101000a900460ff16155b612778576040517f08c379a000000000000000000000000000000000000000000000000000000000815260040161276f906149ab565b60405180910390fd5b60008060019054906101000a900460ff1615905080156127c8576001600060016101000a81548160ff02191690831515021790555060016000806101000a81548160ff0219169083151502179055505b80156127e95760008060016101000a81548160ff0219169083151502179055505b50565b600060019054906101000a900460ff1680612812575060008054906101000a900460ff16155b612851576040517f08c379a0000000000000000000000000000000000000000000000000000000008152600401612848906149ab565b60405180910390fd5b60008060019054906101000a900460ff1615905080156128a1576001600060016101000a81548160ff02191690831515021790555060016000806101000a81548160ff0219169083151502179055505b80156128c25760008060016101000a81548160ff0219169083151502179055505b50565b600060019054906101000a900460ff16806128eb575060008054906101000a900460ff16155b61292a576040517f08c379a0000000000000000000000000000000000000000000000000000000008152600401612921906149ab565b60405180910390fd5b60008060019054906101000a900460ff16159050801561297a576001600060016101000a81548160ff02191690831515021790555060016000806101000a81548160ff0219169083151502179055505b8260659080519060200190612990929190613a85565b5081606690805190602001906129a7929190613a85565b5080156129c95760008060016101000a81548160ff0219169083151502179055505b505050565b600060019054906101000a900460ff16806129f4575060008054906101000a900460ff16155b612a33576040517f08c379a0000000000000000000000000000000000000000000000000000000008152600401612a2a906149ab565b60405180910390fd5b60008060019054906101000a900460ff161590508015612a83576001600060016101000a81548160ff02191690831515021790555060016000806101000a81548160ff0219169083151502179055505b8015612aa45760008060016101000a81548160ff0219169083151502179055505b50565b600060019054906101000a900460ff1680612acd575060008054906101000a900460ff16155b612b0c576040517f08c379a0000000000000000000000000000000000000000000000000000000008152600401612b03906149ab565b60405180910390fd5b60008060019054906101000a900460ff161590508015612b5c576001600060016101000a81548160ff02191690831515021790555060016000806101000a81548160ff0219169083151502179055505b8015612b7d5760008060016101000a81548160ff0219169083151502179055505b50565b600060019054906101000a900460ff1680612ba6575060008054906101000a900460ff16155b612be5576040517f08c379a0000000000000000000000000000000000000000000000000000000008152600401612bdc906149ab565b60405180910390fd5b60008060019054906101000a900460ff161590508015612c35576001600060016101000a81548160ff02191690831515021790555060016000806101000a81548160ff0219169083151502179055505b600060fb60006101000a81548160ff0219169083151502179055508015612c715760008060016101000a81548160ff0219169083151502179055505b50565b600060019054906101000a900460ff1680612c9a575060008054906101000a900460ff16155b612cd9576040517f08c379a0000000000000000000000000000000000000000000000000000000008152600401612cd0906149ab565b60405180910390fd5b60008060019054906101000a900460ff161590508015612d29576001600060016101000a81548160ff02191690831515021790555060016000806101000a81548160ff0219169083151502179055505b8015612d4a5760008060016101000a81548160ff0219169083151502179055505b50565b600060019054906101000a900460ff1680612d73575060008054906101000a900460ff16155b612db2576040517f08c379a0000000000000000000000000000000000000000000000000000000008152600401612da9906149ab565b60405180910390fd5b60008060019054906101000a900460ff161590508015612e02576001600060016101000a81548160ff02191690831515021790555060016000806101000a81548160ff0219169083151502179055505b8015612e235760008060016101000a81548160ff0219169083151502179055505b50565b6000612e478473ffffffffffffffffffffffffffffffffffffffff166133ce565b15612fa1578373ffffffffffffffffffffffffffffffffffffffff1663150b7a02612e706113f0565b8786866040518563ffffffff1660e01b8152600401612e9294939291906151ab565b6020604051808303816000875af1925050508015612ece57506040513d601f19601f82011682018060405250810190612ecb919061520c565b60015b612f51573d8060008114612efe576040519150601f19603f3d011682016040523d82523d6000602084013e612f03565b606091505b50600081511415612f49576040517f08c379a0000000000000000000000000000000000000000000000000000000008152600401612f4090614efe565b60405180910390fd5b805181602001fd5b63150b7a0260e01b7bffffffffffffffffffffffffffffffffffffffffffffffffffffffff1916817bffffffffffffffffffffffffffffffffffffffffffffffffffffffff191614915050612fa6565b600190505b949350505050565b606060405180602001604052806000815250905090565b6060612fd082611384565b61300f576040517f08c379a0000000000000000000000000000000000000000000000000000000008152600401613006906152ab565b60405180910390fd5b6000613019612fae565b905060008151116130395760405180602001604052806000815250613064565b80613043846133e1565b604051602001613054929190614fb0565b6040516020818303038152906040525b915050919050565b6130768383613542565b6130836000848484612e26565b6130c2576040517f08c379a00000000000000000000000000000000000000000000000000000000081526004016130b990614efe565b60405180910390fd5b505050565b60007f80ac58cd000000000000000000000000000000000000000000000000000000007bffffffffffffffffffffffffffffffffffffffffffffffffffffffff1916827bffffffffffffffffffffffffffffffffffffffffffffffffffffffff1916148061319257507f5b5e139f000000000000000000000000000000000000000000000000000000007bffffffffffffffffffffffffffffffffffffffffffffffffffffffff1916827bffffffffffffffffffffffffffffffffffffffffffffffffffffffff1916145b806131a257506131a182613710565b5b9050919050565b6131b483838361377a565b600073ffffffffffffffffffffffffffffffffffffffff168373ffffffffffffffffffffffffffffffffffffffff1614156131f7576131f28161377f565b613236565b8173ffffffffffffffffffffffffffffffffffffffff168373ffffffffffffffffffffffffffffffffffffffff16146132355761323483826137c8565b5b5b600073ffffffffffffffffffffffffffffffffffffffff168273ffffffffffffffffffffffffffffffffffffffff1614156132795761327481613935565b6132b8565b8273ffffffffffffffffffffffffffffffffffffffff168273ffffffffffffffffffffffffffffffffffffffff16146132b7576132b68282613a06565b5b5b505050565b60006132c882610b28565b90506132d68160008461242c565b6132e16000836113f8565b6001606860008373ffffffffffffffffffffffffffffffffffffffff1673ffffffffffffffffffffffffffffffffffffffff16815260200190815260200160002060008282546133319190614c1c565b925050819055506067600083815260200190815260200160002060006101000a81549073ffffffffffffffffffffffffffffffffffffffff021916905581600073ffffffffffffffffffffffffffffffffffffffff168273ffffffffffffffffffffffffffffffffffffffff167fddf252ad1be2c89b69c2b068fc378daa952ba7f163c4a11628f55a4df523b3ef60405160405180910390a45050565b600080823b905060008111915050919050565b60606000821415613429576040518060400160405280600181526020017f3000000000000000000000000000000000000000000000000000000000000000815250905061353d565b600082905060005b6000821461345b578080613444906152cb565b915050600a826134549190615343565b9150613431565b60008167ffffffffffffffff8111156134775761347661400a565b5b6040519080825280601f01601f1916602001820160405280156134a95781602001600182028036833780820191505090505b5090505b60008514613536576001826134c29190614c1c565b9150600a856134d19190615374565b60306134dd9190614c50565b60f81b8183815181106134f3576134f26147e6565b5b60200101907effffffffffffffffffffffffffffffffffffffffffffffffffffffffffffff1916908160001a905350600a8561352f9190615343565b94506134ad565b8093505050505b919050565b600073ffffffffffffffffffffffffffffffffffffffff168273ffffffffffffffffffffffffffffffffffffffff1614156135b2576040517f08c379a00000000000000000000000000000000000000000000000000000000081526004016135a9906153f1565b60405180910390fd5b6135bb81611384565b156135fb576040517f08c379a00000000000000000000000000000000000000000000000000000000081526004016135f29061545d565b60405180910390fd5b6136076000838361242c565b6001606860008473ffffffffffffffffffffffffffffffffffffffff1673ffffffffffffffffffffffffffffffffffffffff16815260200190815260200160002060008282546136579190614c50565b92505081905550816067600083815260200190815260200160002060006101000a81548173ffffffffffffffffffffffffffffffffffffffff021916908373ffffffffffffffffffffffffffffffffffffffff160217905550808273ffffffffffffffffffffffffffffffffffffffff16600073ffffffffffffffffffffffffffffffffffffffff167fddf252ad1be2c89b69c2b068fc378daa952ba7f163c4a11628f55a4df523b3ef60405160405180910390a45050565b60007f01ffc9a7000000000000000000000000000000000000000000000000000000007bffffffffffffffffffffffffffffffffffffffffffffffffffffffff1916827bffffffffffffffffffffffffffffffffffffffffffffffffffffffff1916149050919050565b505050565b609980549050609a600083815260200190815260200160002081905550609981908060018154018082558091505060019003906000526020600020016000909190919091505550565b600060016137d584610bda565b6137df9190614c1c565b90506000609860008481526020019081526020016000205490508181146138c4576000609760008673ffffffffffffffffffffffffffffffffffffffff1673ffffffffffffffffffffffffffffffffffffffff168152602001908152602001600020600084815260200190815260200160002054905080609760008773ffffffffffffffffffffffffffffffffffffffff1673ffffffffffffffffffffffffffffffffffffffff168152602001908152602001600020600084815260200190815260200160002081905550816098600083815260200190815260200160002081905550505b6098600084815260200190815260200160002060009055609760008573ffffffffffffffffffffffffffffffffffffffff1673ffffffffffffffffffffffffffffffffffffffff16815260200190815260200160002060008381526020019081526020016000206000905550505050565b600060016099805490506139499190614c1c565b90506000609a6000848152602001908152602001600020549050600060998381548110613979576139786147e6565b5b90600052602060002001549050806099838154811061399b5761399a6147e6565b5b906000526020600020018190555081609a600083815260200190815260200160002081905550609a60008581526020019081526020016000206000905560998054806139ea576139e961547d565b5b6001900381819060005260206000200160009055905550505050565b6000613a1183610bda565b905081609760008573ffffffffffffffffffffffffffffffffffffffff1673ffffffffffffffffffffffffffffffffffffffff168152602001908152602001600020600083815260200190815260200160002081905550806098600084815260200190815260200160002081905550505050565b828054613a9190614324565b90600052602060002090601f016020900481019282613ab35760008555613afa565b82601f10613acc57805160ff1916838001178555613afa565b82800160010185558215613afa579182015b82811115613af9578251825591602001919060010190613ade565b5b509050613b079190613b4b565b5090565b508054613b1790614324565b6000825580601f10613b295750613b48565b601f016020900490600052602060002090810190613b479190613b4b565b5b50565b5b80821115613b64576000816000905550600101613b4c565b5090565b6000604051905090565b600080fd5b600080fd5b60007fffffffff0000000000000000000000000000000000000000000000000000000082169050919050565b613bb181613b7c565b8114613bbc57600080fd5b50565b600081359050613bce81613ba8565b92915050565b600060208284031215613bea57613be9613b72565b5b6000613bf884828501613bbf565b91505092915050565b60008115159050919050565b613c1681613c01565b82525050565b6000602082019050613c316000830184613c0d565b92915050565b600081519050919050565b600082825260208201905092915050565b60005b83811015613c71578082015181840152602081019050613c56565b83811115613c80576000848401525b50505050565b6000601f19601f8301169050919050565b6000613ca282613c37565b613cac8185613c42565b9350613cbc818560208601613c53565b613cc581613c86565b840191505092915050565b60006020820190508181036000830152613cea8184613c97565b905092915050565b6000819050919050565b613d0581613cf2565b8114613d1057600080fd5b50565b600081359050613d2281613cfc565b92915050565b600060208284031215613d3e57613d3d613b72565b5b6000613d4c84828501613d13565b91505092915050565b600073ffffffffffffffffffffffffffffffffffffffff82169050919050565b6000613d8082613d55565b9050919050565b613d9081613d75565b82525050565b6000602082019050613dab6000830184613d87565b92915050565b613dba81613d75565b8114613dc557600080fd5b50565b600081359050613dd781613db1565b92915050565b60008060408385031215613df457613df3613b72565b5b6000613e0285828601613dc8565b9250506020613e1385828601613d13565b9150509250929050565b613e2681613cf2565b82525050565b6000602082019050613e416000830184613e1d565b92915050565b600080600060608486031215613e6057613e5f613b72565b5b6000613e6e86828701613dc8565b9350506020613e7f86828701613dc8565b9250506040613e9086828701613d13565b9150509250925092565b6000819050919050565b613ead81613e9a565b8114613eb857600080fd5b50565b600081359050613eca81613ea4565b92915050565b600060208284031215613ee657613ee5613b72565b5b6000613ef484828501613ebb565b91505092915050565b613f0681613e9a565b82525050565b6000602082019050613f216000830184613efd565b92915050565b60008060408385031215613f3e57613f3d613b72565b5b6000613f4c85828601613ebb565b9250506020613f5d85828601613dc8565b9150509250929050565b600060208284031215613f7d57613f7c613b72565b5b6000613f8b84828501613dc8565b91505092915050565b613f9d81613c01565b8114613fa857600080fd5b50565b600081359050613fba81613f94565b92915050565b60008060408385031215613fd757613fd6613b72565b5b6000613fe585828601613dc8565b9250506020613ff685828601613fab565b9150509250929050565b600080fd5b600080fd5b7f4e487b7100000000000000000000000000000000000000000000000000000000600052604160045260246000fd5b61404282613c86565b810181811067ffffffffffffffff821117156140615761406061400a565b5b80604052505050565b6000614074613b68565b90506140808282614039565b919050565b600067ffffffffffffffff8211156140a05761409f61400a565b5b6140a982613c86565b9050602081019050919050565b82818337600083830152505050565b60006140d86140d384614085565b61406a565b9050828152602081018484840111156140f4576140f3614005565b5b6140ff8482856140b6565b509392505050565b600082601f83011261411c5761411b614000565b5b813561412c8482602086016140c5565b91505092915050565b6000806000806080858703121561414f5761414e613b72565b5b600061415d87828801613dc8565b945050602061416e87828801613dc8565b935050604061417f87828801613d13565b925050606085013567ffffffffffffffff8111156141a05761419f613b77565b5b6141ac87828801614107565b91505092959194509250565b600067ffffffffffffffff8211156141d3576141d261400a565b5b6141dc82613c86565b9050602081019050919050565b60006141fc6141f7846141b8565b61406a565b90508281526020810184848401111561421857614217614005565b5b6142238482856140b6565b509392505050565b600082601f8301126142405761423f614000565b5b81356142508482602086016141e9565b91505092915050565b600080604083850312156142705761426f613b72565b5b600061427e85828601613dc8565b925050602083013567ffffffffffffffff81111561429f5761429e613b77565b5b6142ab8582860161422b565b9150509250929050565b600080604083850312156142cc576142cb613b72565b5b60006142da85828601613dc8565b92505060206142eb85828601613dc8565b9150509250929050565b7f4e487b7100000000000000000000000000000000000000000000000000000000600052602260045260246000fd5b6000600282049050600182168061433c57607f821691505b602082108114156143505761434f6142f5565b5b50919050565b7f4552433732313a20617070726f76656420717565727920666f72206e6f6e657860008201527f697374656e7420746f6b656e0000000000000000000000000000000000000000602082015250565b60006143b2602c83613c42565b91506143bd82614356565b604082019050919050565b600060208201905081810360008301526143e1816143a5565b9050919050565b7f4552433732313a20617070726f76616c20746f2063757272656e74206f776e6560008201527f7200000000000000000000000000000000000000000000000000000000000000602082015250565b6000614444602183613c42565b915061444f826143e8565b604082019050919050565b6000602082019050818103600083015261447381614437565b9050919050565b7f4552433732313a20617070726f76652063616c6c6572206973206e6f74206f7760008201527f6e6572206e6f7220617070726f76656420666f7220616c6c0000000000000000602082015250565b60006144d6603883613c42565b91506144e18261447a565b604082019050919050565b60006020820190508181036000830152614505816144c9565b9050919050565b7f4552433732313a207472616e736665722063616c6c6572206973206e6f74206f60008201527f776e6572206e6f7220617070726f766564000000000000000000000000000000602082015250565b6000614568603183613c42565b91506145738261450c565b604082019050919050565b600060208201905081810360008301526145978161455b565b9050919050565b7f455243373231456e756d657261626c653a206f776e657220696e646578206f7560008201527f74206f6620626f756e6473000000000000000000000000000000000000000000602082015250565b60006145fa602b83613c42565b91506146058261459e565b604082019050919050565b60006020820190508181036000830152614629816145ed565b9050919050565b7f416363657373436f6e74726f6c3a2063616e206f6e6c792072656e6f756e636560008201527f20726f6c657320666f722073656c660000000000000000000000000000000000602082015250565b600061468c602f83613c42565b915061469782614630565b604082019050919050565b600060208201905081810360008301526146bb8161467f565b9050919050565b7f4552433732314275726e61626c653a2063616c6c6572206973206e6f74206f7760008201527f6e6572206e6f7220617070726f76656400000000000000000000000000000000602082015250565b600061471e603083613c42565b9150614729826146c2565b604082019050919050565b6000602082019050818103600083015261474d81614711565b9050919050565b7f455243373231456e756d657261626c653a20676c6f62616c20696e646578206f60008201527f7574206f6620626f756e64730000000000000000000000000000000000000000602082015250565b60006147b0602c83613c42565b91506147bb82614754565b604082019050919050565b600060208201905081810360008301526147df816147a3565b9050919050565b7f4e487b7100000000000000000000000000000000000000000000000000000000600052603260045260246000fd5b7f4552433732313a206f776e657220717565727920666f72206e6f6e657869737460008201527f656e7420746f6b656e0000000000000000000000000000000000000000000000602082015250565b6000614871602983613c42565b915061487c82614815565b604082019050919050565b600060208201905081810360008301526148a081614864565b9050919050565b7f4552433732313a2062616c616e636520717565727920666f7220746865207a6560008201527f726f206164647265737300000000000000000000000000000000000000000000602082015250565b6000614903602a83613c42565b915061490e826148a7565b604082019050919050565b60006020820190508181036000830152614932816148f6565b9050919050565b7f496e697469616c697a61626c653a20636f6e747261637420697320616c72656160008201527f647920696e697469616c697a6564000000000000000000000000000000000000602082015250565b6000614995602e83613c42565b91506149a082614939565b604082019050919050565b600060208201905081810360008301526149c481614988565b9050919050565b7f4552433732313a20617070726f766520746f2063616c6c657200000000000000600082015250565b6000614a01601983613c42565b9150614a0c826149cb565b602082019050919050565b60006020820190508181036000830152614a30816149f4565b9050919050565b7f4552433732313a206f70657261746f7220717565727920666f72206e6f6e657860008201527f697374656e7420746f6b656e0000000000000000000000000000000000000000602082015250565b6000614a93602c83613c42565b9150614a9e82614a37565b604082019050919050565b60006020820190508181036000830152614ac281614a86565b9050919050565b7f4552433732313a207472616e73666572206f6620746f6b656e2074686174206960008201527f73206e6f74206f776e0000000000000000000000000000000000000000000000602082015250565b6000614b25602983613c42565b9150614b3082614ac9565b604082019050919050565b60006020820190508181036000830152614b5481614b18565b9050919050565b7f4552433732313a207472616e7366657220746f20746865207a65726f2061646460008201527f7265737300000000000000000000000000000000000000000000000000000000602082015250565b6000614bb7602483613c42565b9150614bc282614b5b565b604082019050919050565b60006020820190508181036000830152614be681614baa565b9050919050565b7f4e487b7100000000000000000000000000000000000000000000000000000000600052601160045260246000fd5b6000614c2782613cf2565b9150614c3283613cf2565b925082821015614c4557614c44614bed565b5b828203905092915050565b6000614c5b82613cf2565b9150614c6683613cf2565b9250827fffffffffffffffffffffffffffffffffffffffffffffffffffffffffffffffff03821115614c9b57614c9a614bed565b5b828201905092915050565b600081905092915050565b7f416363657373436f6e74726f6c3a206163636f756e7420000000000000000000600082015250565b6000614ce7601783614ca6565b9150614cf282614cb1565b601782019050919050565b6000614d0882613c37565b614d128185614ca6565b9350614d22818560208601613c53565b80840191505092915050565b7f206973206d697373696e6720726f6c6520000000000000000000000000000000600082015250565b6000614d64601183614ca6565b9150614d6f82614d2e565b601182019050919050565b6000614d8582614cda565b9150614d918285614cfd565b9150614d9c82614d57565b9150614da88284614cfd565b91508190509392505050565b7f5061757361626c653a206e6f7420706175736564000000000000000000000000600082015250565b6000614dea601483613c42565b9150614df582614db4565b602082019050919050565b60006020820190508181036000830152614e1981614ddd565b9050919050565b7f5061757361626c653a2070617573656400000000000000000000000000000000600082015250565b6000614e56601083613c42565b9150614e6182614e20565b602082019050919050565b60006020820190508181036000830152614e8581614e49565b9050919050565b7f4552433732313a207472616e7366657220746f206e6f6e20455243373231526560008201527f63656976657220696d706c656d656e7465720000000000000000000000000000602082015250565b6000614ee8603283613c42565b9150614ef382614e8c565b604082019050919050565b60006020820190508181036000830152614f1781614edb565b9050919050565b7f45524337323155524953746f726167653a2055524920717565727920666f722060008201527f6e6f6e6578697374656e7420746f6b656e000000000000000000000000000000602082015250565b6000614f7a603183613c42565b9150614f8582614f1e565b604082019050919050565b60006020820190508181036000830152614fa981614f6d565b9050919050565b6000614fbc8285614cfd565b9150614fc88284614cfd565b91508190509392505050565b7f45524337323155524953746f726167653a2055524920736574206f66206e6f6e60008201527f6578697374656e7420746f6b656e000000000000000000000000000000000000602082015250565b6000615030602e83613c42565b915061503b82614fd4565b604082019050919050565b6000602082019050818103600083015261505f81615023565b9050919050565b600061507182613cf2565b915061507c83613cf2565b9250817fffffffffffffffffffffffffffffffffffffffffffffffffffffffffffffffff04831182151516156150b5576150b4614bed565b5b828202905092915050565b60006150cb82613cf2565b915060008214156150df576150de614bed565b5b600182039050919050565b7f537472696e67733a20686578206c656e67746820696e73756666696369656e74600082015250565b6000615120602083613c42565b915061512b826150ea565b602082019050919050565b6000602082019050818103600083015261514f81615113565b9050919050565b600081519050919050565b600082825260208201905092915050565b600061517d82615156565b6151878185615161565b9350615197818560208601613c53565b6151a081613c86565b840191505092915050565b60006080820190506151c06000830187613d87565b6151cd6020830186613d87565b6151da6040830185613e1d565b81810360608301526151ec8184615172565b905095945050505050565b60008151905061520681613ba8565b92915050565b60006020828403121561522257615221613b72565b5b6000615230848285016151f7565b91505092915050565b7f4552433732314d657461646174613a2055524920717565727920666f72206e6f60008201527f6e6578697374656e7420746f6b656e0000000000000000000000000000000000602082015250565b6000615295602f83613c42565b91506152a082615239565b604082019050919050565b600060208201905081810360008301526152c481615288565b9050919050565b60006152d682613cf2565b91507fffffffffffffffffffffffffffffffffffffffffffffffffffffffffffffffff82141561530957615308614bed565b5b600182019050919050565b7f4e487b7100000000000000000000000000000000000000000000000000000000600052601260045260246000fd5b600061534e82613cf2565b915061535983613cf2565b92508261536957615368615314565b5b828204905092915050565b600061537f82613cf2565b915061538a83613cf2565b92508261539a57615399615314565b5b828206905092915050565b7f4552433732313a206d696e7420746f20746865207a65726f2061646472657373600082015250565b60006153db602083613c42565b91506153e6826153a5565b602082019050919050565b6000602082019050818103600083015261540a816153ce565b9050919050565b7f4552433732313a20746f6b656e20616c7265616479206d696e74656400000000600082015250565b6000615447601c83613c42565b915061545282615411565b602082019050919050565b600060208201905081810360008301526154768161543a565b9050919050565b7f4e487b7100000000000000000000000000000000000000000000000000000000600052603160045260246000fdfea26469706673582212201f9203939cec04db2d9304716b66433313d655c57a66fe0136552cdc95bb19df64736f6c634300080a0033",
  "immutableReferences": {},
  "source": "// SPDX-License-Identifier: MIT\npragma solidity ^0.8.2;\n\nimport \"@openzeppelin/contracts-upgradeable/token/ERC721/ERC721Upgradeable.sol\";\nimport \"@openzeppelin/contracts-upgradeable/token/ERC721/extensions/ERC721EnumerableUpgradeable.sol\";\nimport \"@openzeppelin/contracts-upgradeable/token/ERC721/extensions/ERC721URIStorageUpgradeable.sol\";\nimport \"@openzeppelin/contracts-upgradeable/security/PausableUpgradeable.sol\";\nimport \"@openzeppelin/contracts-upgradeable/access/AccessControlUpgradeable.sol\";\nimport \"@openzeppelin/contracts-upgradeable/token/ERC721/extensions/ERC721BurnableUpgradeable.sol\";\nimport \"@openzeppelin/contracts-upgradeable/proxy/utils/Initializable.sol\";\nimport \"@openzeppelin/contracts-upgradeable/utils/CountersUpgradeable.sol\";\n\ncontract Checker is Initializable, ERC721Upgradeable, ERC721EnumerableUpgradeable, ERC721URIStorageUpgradeable, PausableUpgradeable, AccessControlUpgradeable, ERC721BurnableUpgradeable {\n    using CountersUpgradeable for CountersUpgradeable.Counter;\n\n    bytes32 public constant PAUSER_ROLE = keccak256(\"PAUSER_ROLE\");\n    bytes32 public constant MINTER_ROLE = keccak256(\"MINTER_ROLE\");\n    CountersUpgradeable.Counter private _tokenIdCounter;\n\n    /// @custom:oz-upgrades-unsafe-allow constructor\n    constructor() initializer {}\n\n    function initialize() initializer public {\n        __ERC721_init(\"Checker\", \"CHK\");\n        __ERC721Enumerable_init();\n        __ERC721URIStorage_init();\n        __Pausable_init();\n        __AccessControl_init();\n        __ERC721Burnable_init();\n\n        _setupRole(DEFAULT_ADMIN_ROLE, msg.sender);\n        _setupRole(PAUSER_ROLE, msg.sender);\n        _setupRole(MINTER_ROLE, msg.sender);\n    }\n\n    function pause() public onlyRole(PAUSER_ROLE) {\n        _pause();\n    }\n\n    function unpause() public onlyRole(PAUSER_ROLE) {\n        _unpause();\n    }\n\n    function safeMint(address to, string memory uri) public onlyRole(MINTER_ROLE) {\n        uint256 tokenId = _tokenIdCounter.current();\n        _tokenIdCounter.increment();\n        _safeMint(to, tokenId);\n        _setTokenURI(tokenId, uri);\n    }\n\n    function _beforeTokenTransfer(address from, address to, uint256 tokenId)\n        internal\n        whenNotPaused\n        override(ERC721Upgradeable, ERC721EnumerableUpgradeable)\n    {\n        super._beforeTokenTransfer(from, to, tokenId);\n    }\n\n    // The following functions are overrides required by Solidity.\n\n    function _burn(uint256 tokenId)\n        internal\n        override(ERC721Upgradeable, ERC721URIStorageUpgradeable)\n    {\n        super._burn(tokenId);\n    }\n\n    function tokenURI(uint256 tokenId)\n        public\n        view\n        override(ERC721Upgradeable, ERC721URIStorageUpgradeable)\n        returns (string memory)\n    {\n        return super.tokenURI(tokenId);\n    }\n\n    function supportsInterface(bytes4 interfaceId)\n        public\n        view\n        override(ERC721Upgradeable, ERC721EnumerableUpgradeable, AccessControlUpgradeable)\n        returns (bool)\n    {\n        return super.supportsInterface(interfaceId);\n    }\n}\n",
  "sourcePath": "C:\\Users\\Heein\\Documents\\Mint\\truffle\\contracts\\Checker.sol",
  "compiler": {
    "name": "solc",
    "version": "0.8.10+commit.fc410830.Emscripten.clang"
  },
  "schemaVersion": "3.4.3",
  "updatedAt": "2021-11-23T16:25:43.656Z",
  "networkType": "ethereum",
  "devdoc": {
    "kind": "dev",
    "methods": {
      "approve(address,uint256)": {
        "details": "See {IERC721-approve}."
      },
      "balanceOf(address)": {
        "details": "See {IERC721-balanceOf}."
      },
      "burn(uint256)": {
        "details": "Burns `tokenId`. See {ERC721-_burn}. Requirements: - The caller must own `tokenId` or be an approved operator."
      },
      "constructor": {
        "custom:oz-upgrades-unsafe-allow": "constructor"
      },
      "getApproved(uint256)": {
        "details": "See {IERC721-getApproved}."
      },
      "getRoleAdmin(bytes32)": {
        "details": "Returns the admin role that controls `role`. See {grantRole} and {revokeRole}. To change a role's admin, use {_setRoleAdmin}."
      },
      "grantRole(bytes32,address)": {
        "details": "Grants `role` to `account`. If `account` had not been already granted `role`, emits a {RoleGranted} event. Requirements: - the caller must have ``role``'s admin role."
      },
      "hasRole(bytes32,address)": {
        "details": "Returns `true` if `account` has been granted `role`."
      },
      "isApprovedForAll(address,address)": {
        "details": "See {IERC721-isApprovedForAll}."
      },
      "name()": {
        "details": "See {IERC721Metadata-name}."
      },
      "ownerOf(uint256)": {
        "details": "See {IERC721-ownerOf}."
      },
      "paused()": {
        "details": "Returns true if the contract is paused, and false otherwise."
      },
      "renounceRole(bytes32,address)": {
        "details": "Revokes `role` from the calling account. Roles are often managed via {grantRole} and {revokeRole}: this function's purpose is to provide a mechanism for accounts to lose their privileges if they are compromised (such as when a trusted device is misplaced). If the calling account had been granted `role`, emits a {RoleRevoked} event. Requirements: - the caller must be `account`."
      },
      "revokeRole(bytes32,address)": {
        "details": "Revokes `role` from `account`. If `account` had been granted `role`, emits a {RoleRevoked} event. Requirements: - the caller must have ``role``'s admin role."
      },
      "safeTransferFrom(address,address,uint256)": {
        "details": "See {IERC721-safeTransferFrom}."
      },
      "safeTransferFrom(address,address,uint256,bytes)": {
        "details": "See {IERC721-safeTransferFrom}."
      },
      "setApprovalForAll(address,bool)": {
        "details": "See {IERC721-setApprovalForAll}."
      },
      "symbol()": {
        "details": "See {IERC721Metadata-symbol}."
      },
      "tokenByIndex(uint256)": {
        "details": "See {IERC721Enumerable-tokenByIndex}."
      },
      "tokenOfOwnerByIndex(address,uint256)": {
        "details": "See {IERC721Enumerable-tokenOfOwnerByIndex}."
      },
      "totalSupply()": {
        "details": "See {IERC721Enumerable-totalSupply}."
      },
      "transferFrom(address,address,uint256)": {
        "details": "See {IERC721-transferFrom}."
      }
    },
    "version": 1
  },
  "userdoc": {
    "kind": "user",
    "methods": {},
    "version": 1
  }
}